:020000040800F2
:1000000000000220A5010008000000000000000020
:1000100000000000000000000000000000000000E0
:1000200000000000000000000000000000000000D0
:10003000000000000000000000000000790200083D
:1000400000000000000000000000000000000000B0
:1000500000000000000000000000000000000000A0
:100060000000000000000000000000000000000090
:100070000000000000000000000000000000000080
:100080000000000000000000000000000000000070
:100090000000000000000000000000000000000060
:1000A0000000000000000000000000000000000050
:1000B0000000000000000000000000000000000040
:1000C0000000000000000000000000000000000030
:1000D0000000000000000000000000000000000020
:1000E0000000000000000000000000000000000010
:1000F0000000000000000000000000000000000000
:1001000000000000000000000000000000000000EF
:1001100000000000000000000000000000000000DF
:1001200000000000000000000000000000000000CF
:1001300000000000000000000000000000000000BF
:1001400000000000000000000000000000000000AF
:10015000000000000000000000000000000000009F
:10016000000000000000000000000000000000008F
:10017000000000000000000000000000000000007F
:10018000000000000000000000000000000000006F
:08019000000000000000000067
:1001980008B540F20D2000F039F8FAE7094B02E003
:1001A800002243F8042B084A9342F9D3074A084B24
:1001B80003E052F8041B43F8041B06498B42F8D3AA
:1001C800FFF7E6FF040000200900002038030008BC
:1001D800000000200100002030B583B00446094B20
:1001E800196801A800F04CF808B103B030BD064DFD
:1001F8002978204600F087F82B78B3FA83F35B0957
:100208002B70F2E7040000200000002008B5084B1E
:100218001B7853B9012100F00DF84FF47A5000F023
:1002280013F8034B01221A7008BDFFF7D5FFFBE74F
:100238000800002038B504460D4600F039F8294674
:10024800204600F049F838BD08B500F004F80E2043
:1002580000F038F808BD0138B0F1807F06D24FF0C1
:10026800E023586100229A6107221A617047000052
:10027800024A136801331360704700BF040000206E
:1002880001F5FA730268934201D200220260026803
:1002980002B9036002688A4208D8891AB1F5FA7F60
:1002A80001D802F5FA7303600020704701207047F7
:1002B80003490B6B020A0120904003430B6370470C
:1002C8000038024003494B6B0122824013434B63C1
:1002D800704700BF00380240030A03F580138033DB
:1002E8009B02C0B21A6840004FF0030C0CFA00FCE5
:1002F80022EA0C021A601A6801F0030101FA00F000
:10030800104318607047030A03F5801380339B027B
:10031800C0B2012202FA00F019B10022904098619F
:0603280070471022FAE705
:04033000F8B500BF5D
:04033400F8B500BF59
:0103380001C3
:04000005080001A549
:00000001FF
