:020000040800F2
:1000000000000220B1010008000000000000000014
:1000100000000000000000000000000000000000E0
:1000200000000000000000000000000000000000D0
:1000300000000000000000000000000000000000C0
:1000400000000000000000000000000000000000B0
:1000500000000000000000000000000000000000A0
:100060000000000000000000000000000000000090
:100070000000000000000000000000000000000080
:100080000000000000000000000000000000000070
:100090000000000000000000000000000000000060
:1000A0000000000000000000000000000000000050
:1000B0000000000000000000000000000000000040
:1000C0000000000000000000000000000000000030
:1000D0000000000000000000000000000000000020
:1000E0000000000000000000000000000000000010
:1000F0000000000000000000000000000000000000
:1001000000000000000000000000000000000000EF
:1001100000000000000000000000000000000000DF
:1001200000000000000000000000000000000000CF
:1001300000000000000000000000000000000000BF
:1001400000000000000000000000000000000000AF
:10015000000000000000000000000000000000009F
:10016000000000000000000000000000000000008F
:10017000000000000000000000000000000000007F
:10018000000000000000000000000000000000006F
:08019000000000000000000067
:1001980008B5012140F20D2000F03CF840F20D2096
:1001A80000F020F8FAE70000094B02E0002243F8CB
:1001B800042B084A9342F9D3074A084B03E052F844
:1001C800041B43F8041B06498B42F8D3FFF7E0FFF2
:1001D80000000020000000209C0200080000002011
:1001E8000000002010B50446094B1A46013B002ABE
:1001F800FBD10121204600F038F8054B1A46013B97
:10020800002AFBD10021204600F02FF810BD00BFC6
:100218003F420F0038B504460D4600F005F8294660
:10022800204600F00BF838BD03490B6B020A012089
:10023800904003430B63704700380240030A03F5FC
:10024800801380339B02C0B21A6840004FF0030C41
:100258000CFA00FC22EA0C021A601A6801F0030189
:1002680001FA00F0104318607047030A03F5801381
:1002780080339B02C0B2012202FA00F019B10022B9
:0A0288009040986170471022FAE7D9
:04029400F8B500BFFA
:04029800F8B500BFF6
:04000005080001B13D
:00000001FF
