:020000040800F2
:1000000000000220ED0100080000000000000000D8
:1000100000000000000000000000000000000000E0
:1000200000000000000000000000000000000000D0
:1000300000000000000000000000000000000000C0
:1000400000000000000000000000000000000000B0
:1000500000000000000000000000000000000000A0
:100060000000000000000000000000000000000090
:100070000000000000000000000000000000000080
:100080000000000000000000000000000000000070
:100090000000000000000000000000000000000060
:1000A0000000000000000000000000000000000050
:1000B0000000000000000000000000000000000040
:1000C0000000000000000000000000000000000030
:1000D0000000000000000000000000000000000020
:1000E0000000000000000000000000000000000010
:1000F0000000000000000000000000000000000000
:1001000000000000000000000000000000000000EF
:1001100000000000000000000000000000000000DF
:1001200000000000000000000000000000000000CF
:1001300000000000000000000000000000000000BF
:1001400000000000000000000000000000000000AF
:10015000000000000000000000000000000000009F
:10016000000000000000000000000000000000008F
:10017000000000000000000000000000000000007F
:10018000000000000000000000000000000000006F
:08019000000000000000000067
:10019800104A136B43F0040313630F4B1A6822F0E1
:1001A80040621A601A6842F080621A600A4B4FF483
:1001B80000529A61094B1A46013B002AFBD1084BB1
:1001C8004FF00052C3F81828044B1A46013B002A86
:1001D800FBD1EBE700380240000802403F420F0025
:1001E80000000240094B02E0002243F8042B084AB1
:1001F8009342F9D3074A084B03E052F8041B43F82B
:10020800041B06498B42F8D3FFF7C2FF0000002009
:10021800000000203002000800000020000000203C
:04022800F8B500BF66
:04022C00F8B500BF62
:04000005080001ED01
:00000001FF
